:100000002EC7000057C7000055C7000053C70000A7
:1000100051C700004FC700004DC700004BC700008C
:1000200049C7000047C700000C944F520C94C950B8
:1000300041C700000C94C00D3DC700003BC7000045
:1000400039C700000C94802335C7000033C7000077
:1000500031C700002FC700002DC700000C941050BE
:1000600029C7000027C7000025C7000023C70000DC
:1000700021C700001FC700001DC700001BC70000EC
:1000800019C7000017C7000015C7000013C70000FC
:1000900011C700000FC70000084AD73B3BCE016ED6
:1000A00084BCBFFDC12F3D6C74319ABD56833DDACF
:1000B0003D00C77F11BED9E4BB4C3E916BAAAABEDE
:1000C000000000803F05A84CCDB2D44EB93836A907
:1000D000020C50B9918688083CA6AAAA2ABE000044
:1000E00000803F2000200020002000200020004D44
:1000F00054454D503A007C3C3E5E2B3D3F2F5B5DAE
:100100003B2C2A225C0024F404D9201BC40C5C0E76
:100110009804C4095F0265077101F405F900FB0446
:10012000B30048048700C103690058035500030366
:100130004500BE023A008402310053022A0029021F
:10014000250004022000E4011C00C8011900AF01D1
:10015000170098011400840113007101100061015F
:10016000100051010E0043010D0036010B002B0160
:100170000B0020010B00150109000C01090003010F
:100180000800FB000800F3000800EB000700E40093
:100190000600DE000600D8000600D2000600CC00F3
:1001A0000500C7000500C2000500BD000400B9003D
:1001B0000400B5000400B1000400AD000400A90073
:1001C0000400A5000300A20003009F0004009B00A0
:1001D00003009800030095000200930003009000C4
:1001E00003008D0002008B000300880002008600DF
:1001F000020084000300810002007F0002007D00F5
:1002000002007B0002007900020077000100760006
:1002100002007400020072000100710002006F0011
:1002200002006D0001006C0002006A00010069001C
:100230000200670001006600010065000100640023
:1002400002006200010061000100600001005F0027
:1002500002005D0001005C0001005B0001005A002B
:10026000010059000100580001005700010056002C
:10027000010055000100540001005300000053002C
:1002800001005200010051000100500001004F0028
:1002900001004E0000004E0001004D0001004C0026
:1002A00001004B0000004B0001004A000100490022
:1002B000010048000000480001004700010046001E
:1002C0000000460001004500000045000100440018
:1002D0000100430000004300010042000000420012
:1002E00001004100000041000100400001003F000A
:1002F00000003F0001003E0000003E0001003D0004
:1003000000003D0001003C0000003C0000003C00FB
:1003100001003B0000003B0001003A0000003A00F1
:1003200001003900000039000100380000003800E9
:1003300000003800010037000000370001003600DF
:1003400000003600000036000100350000003500D6
:1003500000003500010034000000340000003400CB
:1003600001003300000033000000330001003200C0
:1003700000003200000032000100310000003100B6
:1003800000003100010030000000300000003000AB
:1003900001002F0000002F0000002F0000002F00A0
:1003A00001002E0000002E0000002E0001002D0094
:1003B00000002D0000002D0000002D0001002C0089
:1003C00000002C0000002C0000002C0001002B007D
:1003D00000002B0000002B0000002B0001002A0071
:1003E00000002A0000002A0000002A000100290065
:1003F0000000290000002900000029000000290059
:10040000010028000000280000002800000028004B
:10041000000028000100270000002700000027003E
:100420000000270000002700010026000000260031
:100430000000260000002600000026000100250024
:100440000000250000002500000025000000250018
:10045000000025000100240000002400000024000A
:1004600000002400000024000100230000002300FD
:1004700000002300000023000000230000002300F0
:1004800000002300010022000000220000002200E2
:1004900000002200000022000000220001002100D4
:1004A00000002100000021000000210000002100C8
:1004B00000002100000021000100200000002000B9
:1004C00000002000000020000000200000002000AC
:1004D000000020000000200001001F0000001F009D
:1004E00000001F0000001F0000001F0000001F0090
:1004F00000001F0001001E0000001E0000001E0082
:1005000000001E00000024F4D43050C38E20C2A28C
:100510004017828B7011127A910D816CD90AA861F3
:10052000E108C7586607615143061E4B5D05C1458A
:10053000A7041A411104093D98037139310340366B
:10054000DB0265339102D4305402802E1D02632CED
:10055000EE01752AC501B028A001102781018F2561
:1005600064012B244B01E0223401AC211F018D20BA
:100570000D01801FFC00841EED00971DDF00B81CDC
:10058000D200E61BC600201BBC00641AB200B219E0
:10059000A8000A19A0006A189900D1179100401705
:1005A0008B00B516840031167E00B31579003A151C
:1005B0007300C7146F0058146A00EE1366008813A6
:1005C000630025135E00C7125B006C125700151202
:1005D0005400C111510070114F0021114B00D61071
:1005E00049008D1047004610440002104200C00F21
:1005F0004000800F3E00420F3C00060F3B00CB0E38
:100600003800930E37005C0E3500270E3400F30DD2
:100610003200C10D3100900D3000600D2E00320D02
:100620002D00050D2C00D90C2B00AE0C2900850CDB
:1006300029005C0C2700350C27000E0C2600E80B67
:100640002400C40B2400A00B23007D0B23005A0BB5
:100650002100390B2100180B2000F80A1F00D90ACD
:100660001E00BB0A1E009D0A1D00800A1D00630AB1
:100670001C00470A1B002C0A1B00110A1A00F7096C
:100680001A00DD091900C4091900AB091900920903
:1006900017007B091800630917004C09160036097A
:1006A0001600200916000A091500F5081500E008D3
:1006B0001400CC081400B8081400A4081400900812
:1006C00013007D0812006B0813005808120046083A
:1006D000120034081100230811001208110001084B
:1006E0001100F0071000E0071000D0071000C0074D
:1006F0001000B0070F00A107100091070E0083073C
:100700000F0074070F0065070E0057070E0049071A
:100710000E003B070D002E070E0020070D001307EB
:100720000D0006070D00F9060C00ED060D00E006B1
:100730000C00D4060C00C8060C00BC060C00B00669
:100740000C00A4060B0099060C008D060B00820617
:100750000B0077060B006C060B0061060A005706BB
:100760000B004C060A0042060A0038060A002E0654
:100770000A0024060A001A060A00100609000706E5
:100780000A00FD050900F4050900EB050900E20572
:100790000900D9050900D0050900C7050900BE05F3
:1007A0000900B5050800AD050800A50509009C0570
:1007B0000800940508008C050800840508007C05E5
:1007C0000800740508006C050700650508005D0554
:1007D0000700560508004E050700470507004005BD
:1007E000080038050700310507002A050700230522
:1007F00007001C050600160507000F050700080581
:10080000060002050700FB040600F5040700EE04DD
:100810000600E8040600E2040700DB040600D50435
:100820000600CF040600C9040600C3040600BD0488
:100830000600B7040600B1040500AC040600A604D7
:100840000600A00405009B04060095040500900422
:1008500006008A04050085040500800406007A0469
:10086000050075040500700405006B0405006604AE
:100870000500610405005C040500570405005204EE
:1008800005004D04050048040500430405003E042E
:1008900004003A04050035040500300404002C046B
:1008A000050027040400230405001E0404001A04A4
:1008B000040016040500110404000D0404000904DA
:1008C00005000404040000040400FC030400F80311
:1008D0000400F4030400F0030400EC030400E80344
:1008E0000400E4030400E0030400DC030400D80374
:1008F0000400D4030400D0030400CC030400C803A4
:100900000300C50303006F6B0D0A00526573656E2B
:10091000643A00446F6E65207072696E74696E6728
:100920002066696C650D0A006F6B0D0A00457272D6
:100930006F723A204E6F204C696E65204E756D6265
:100940006572207769746820636865636B73756D81
:100950002C204C617374204C696E653A00457272AC
:100960006F723A204E6F20436865636B73756D201C
:1009700077697468206C696E65206E756D6265724A
:100980002C204C617374204C696E653A004572727C
:100990006F723A20636865636B73756D206D697360
:1009A0006D617463682C204C617374204C696E65B2
:1009B0003A0053657269616C204572726F723A2019
:1009C0004C696E65204E756D626572206973206E8C
:1009D0006F74204C617374204C696E65204E756D88
:1009E0006265722B312C204C617374204C696E65EA
:1009F0003A00446F6E6520736176696E67206669A0
:100A00006C652E0D0A006F6B0D0A006572726F72B5
:100A10002077726974696E6720746F2066696C65EF
:100A20000D0A00556E6B6E6F776E20636F6D6D6192
:100A30006E643A0D0A00467265652052616D3A2077
:100A4000000D0A007A5F6D696E3A00795F6D696E1C
:100A50003A00785F6D696E3A00453A005A3A00599B
:100A60003A00583A000D0A00303030303030303023
:100A70002D303030302D303030302D303030302D82
:100A80003030303030303030303030300046495245
:100A90004D574152455F4E414D453A205370726962
:100AA0006E746572204578706572696D656E7461EB
:100AB0006C2050524F544F434F4C5F564552534950
:100AC0004F4E3A312E30204D414348494E455F54F8
:100AD0005950453A4D656E64656C204558545255E1
:100AE0004445525F434F554E543A310D0A0020425F
:100AF0003A00543A00543A0020423A0020403A006A
:100B00006F6B20543A0044656C6574696F6E2066A3
:100B100061696C65640D0A0046696C652064656CEA
:100B2000657465640D0A0057726974696E67207494
:100B30006F2066696C653A20002E006F70656E202C
:100B40006661696C65642C2046696C653A20004ECC
:100B50006F74205344207072696E74696E670D0A59
:100B6000002F005344207072696E74696E672062B2
:100B7000797465200066696C652E6F70656E2066FD
:100B800061696C65640D0A0046696C652073656C6B
:100B900065637465640D0A002053697A653A0046FE
:100BA000696C65206F70656E65643A00456E6420FF
:100BB00066696C65206C6973740D0A00426567692B
:100BC0006E2066696C65206C6973740D0A00202FB5
:100BD0002000506C616E2042756666657220536914
:100BE0007A653A00467265652052616D3A2000537D
:100BF0007465707065722054696D657220696E69E4
:100C0000740D0A00506C616E6E657220496E6974D5
:100C10000D0A00536F66742050574D20496E697459
:100C20000D0A0053442053746172740D0A007374EA
:100C30006172740D0A000D0A00312E332E313154C9
:100C4000202F2031392E30332E3230313200537084
:100C500072696E7465720D0A00566F6C756D652051
:100C600073697A6520284D6279746573293A20008A
:100C70000A566F6C756D65207479706520697320F4
:100C800046415400556E6B6E6F776E0D0A005344EB
:100C900048430D0A005344320D0A005344310D0AF3
:100CA000000A4361726420747970653A20006F70A5
:100CB000656E526F6F74206661696C65640D0A0021
:100CC000766F6C756D652E696E6974206661696CEE
:100CD00065640D0A00534420696E69742066616979
:100CE0006C0D0A000129022904290829102920294C
:100CF00040298029012C022C0126022604260826E0
:100D00001026202640268026402C802C01230223FA
:100D100004230823102320234023802301200220C2
:100D2000042008201020202040208020102C202C7F
:100D3000012F022F042F082F102F202F402F802F3C
:100D40007EFE7EFD7EFB7EF77EEF7EDF7EBF7E7FBA
:100D500000010000840D1200020000960D43000304
:100D60000000D90D0401030904DD0D180203090474
:100D7000F70D16030309040F0E0C0001C1020180D8
:100D8000360181361201000202000020C0168304E1
:100D900000010102030109024300020100C03209FF
:100DA00004000001020201000524001001052401D5
:100DB0000001042402060524060001070582030839
:100DC000004009040100020A000000070503024078
:100DD00000000705840240000004030904180354BE
:100DE00000650065006E007300790064007500699D
:100DF000006E006F000000160355005300420020F3
:100E000000530065007200690061006C0000000C76
:100E100003310032003300340035000000494E46F3
:100E2000494E4954594E414ECDCCCC3D0AD7233C76
:100E300017B7D13877CC2B329595E6241FB14F0ADE
:100E4000000020410000C84200401C4620BCBE4CAF
:100E5000CA1B0E5AAEC59D74B40E8A28D3551124F0
:100E60001FBECFEFD0E2DEBFCDBF12E0A0E0B1E009
:100E7000E4E7F7EB00E00BBF02C007900D92AA3E3B
:100E8000B107D9F71BBE1DE0AAEEB2E001C01D926A
:100E9000AD32B107E1F71EE0CEE5DEE004C02297F7
:100EA000FE010E94725BC835D107C9F70E94CD527E
:100EB0000C94B85BA5C8A0E0B0E0E1E6F7E00C94C4
:100EC000875BEC015B016115710519F0FB019183F2
:100ED0008083F9908F2D90E00E94765B892BC9F773
:100EE000FDE2FF1621F4F990EE24E39405C02BE215
:100EF000F21609F4F990EE248E0101501040C80159
:100F00006DE17EE043E050E062D2892BF9F48E017E
:100F10000E5F1F4FC80160E27EE045E050E057D20F
:100F2000892B19F48E01095F1F4FA114B10419F028
:100F3000F50111830083E0FC04C070E090E080E8DC
:100F400013C070E090E080E86FEF07C1C80165E270
:100F50007EE043E050E03BD2892B69F4A114B10458
:100F600029F470E090E080EC6FE7F7C02296F5017D
:100F7000D183C083F6CF8824992440E050E060E01C
:100F800070E0EF2DE053EA30A0F5F2E0EF2A8E2D6D
:100F900090E09C0128703070E2FE06C0232B79F5AA
:100FA0000894811C911C2BC0232B19F008948108F4
:100FB0009108DB01CA0112E0880F991FAA1FBB1F0D
:100FC0001A95D1F7480F591F6A1F7B1F440F551FF1
:100FD000661F771F4E0F511D611D711D483929E98C
:100FE000520729E9620729E1720748F084E0E82AFC
:100FF00006C0EE3F31F4E3FC39C098E0E92AF990ED
:10100000C0CFE53311F0E53189F529912D3219F47E
:10101000E0E1EE2A05C02B3219F081E090E003C038
:10102000299182E090E0E22FE053EA3018F0C81BEB
:10103000D90B1CC020E030E0FCE020383F075CF416
:10104000C901880F991F880F991F280F391F220F78
:10105000331F2E0F311DE991E053EA3068F3E4FEAF
:1010600003C0309521953F4F820E931ECE2CDD2478
:10107000E1FE07C0A114B10421F02197F501D1834D
:10108000C083CB01BA010E94CF577B018C01F3E0F2
:10109000CF22DD2423E0C216D10421F417FB1095E2
:1010A00017F9109557016801C801B70120E030E039
:1010B00040E050E00E942F57882309F44AC097FE71
:1010C0000DC02CE3E22E2EE0F22E90948194910834
:1010D0009394C0E2D0E000E010E012C094E5E92E65
:1010E0009EE0F92EF6CFF701259135914591549167
:1010F000C601B5010E940F5A5B016C018C1A9D0A52
:101100008C169D0684F7D595C7950F5F1F4F063047
:10111000110529F08CEF9FEFE80EF91EF1CFC50104
:10112000D6017C018D018C2D880F8D2D881F8F3F5E
:1011300051F0C601B50120E030E040E050E00E94EF
:101140002F57882331F482E290E090932C0D809306
:101150002B0D7E2D9F2D802F612F272F392F482F6C
:10116000562FB901CA01CDB7DEB7ECE00C94A35BF2
:101170002F923F925F926F927F928F929F92AF9247
:10118000BF92CF92DF92EF92FF920F931F93CF9374
:10119000DF938C011B01EA016115710519F0FB0158
:1011A00091838083209749F0CE010297839728F09E
:1011B00020E030E040E050E0F6C0F801A1908F015F
:1011C0008A2D90E00E94765B892BB9F7FDE2AF167D
:1011D00031F4F801A1908F015524539407C0FBE22C
:1011E000AF1619F4F801A1908F015524209719F03A
:1011F000C031D105C1F4F0E3AF1679F4F801808174
:10120000883711F0883549F4F801A1800E5F1F4F2F
:10121000F2E05F2AC0E1D0E006C0209721F480E32D
:10122000A816E9F427C0C830D10531F1C930D1057D
:1012300024F4C230D10531F50CC0CA30D10589F093
:10124000C031D105F9F4C12CD12CE12CB8E0FB2E32
:1012500028C0C12CD12CE12CA0E4FA2E22C0CAE077
:10126000D0E0FCECCF2EFCECDF2EFCECEF2EFCE013
:10127000FF2E17C0C8E0D0E0C12CD12CE12CE0E15A
:10128000FE2E0FC09E01442737FD4095542F60E08D
:1012900070E080E090E80E941F5BC901DA016C01F8
:1012A0007D0120E030E040E050E060E03E01882435
:1012B00077FC8094982C70EDB72EBA0CE9E0EB1512
:1012C00070F48A2D81548A3118F499ECB92E06C035
:1012D0008A2D81568A3150F589EAB82EBA0C8B2DA9
:1012E00090E08C179D0714F56F3FE1F0C216D3060E
:1012F000E406F506B0F0CA01B901A40193010E9409
:10130000E15A9B01AC012B0D311D411D511D2130B6
:10131000F0E03F07F0E04F07F0E85F0710F461E00E
:1013200001C06FEFF801A1908F01C5CF21143104E6
:1013300081F0662331F001501040F10111830083E8
:1013400008C051FE1AC002501040F1011183008301
:1013500014C067FF12C050FC05C02FEF3FEF4FEFE6
:101360005FE704C020E030E040E050E882E290E037
:1013700090932C0D80932B0D16C050FE08C05095F5
:101380004095309521953F4F4F4F5F4F0CC057FF11
:101390000AC082E290E090932C0D80932B0D2FEFEA
:1013A0003FEF4FEF5FE7B901CA01DF91CF911F9186
:1013B0000F91FF90EF90DF90CF90BF90AF909F90F4
:1013C0008F907F906F905F903F902F900895FB01DA
:1013D000DC014150504088F08D9181341CF08B35F8
:1013E0000CF4805E659161341CF06B350CF4605E2A
:1013F000861B611171F3990B0895881BFCCFFB01CB
:10140000DC0104C08D910190801921F441505040BD
:10141000C8F7881B990B0895FC018191861721F06C
:101420008823D9F7992708953197CF010895FB01B3
:1014300051915523A9F0BF01DC014D914517411190
:10144000E1F759F4CD010190002049F04D9140158C
:101450004111C9F3FB014111EFCF81E090E0019709
:1014600008952F923F924F925F926F927F928F9248
:101470009F92AF92BF92CF92DF92EF92FF920F9323
:101480001F93DF93CF93CDB7DEB7CB55D0400FB6C8
:10149000F894DEBF0FBECDBF4C012F967FAF6EAF6D
:1014A0002F971A0160962FAF609761960FAF6197E3
:1014B0006296EFAE62976696ACAEBDAECEAEDFAED4
:1014C0006697E22EFF24EE0CFF1CEE0CFF1C2A0197
:1014D0004E0C5F1C2D965FAE4EAE2D97D2014D90F7
:1014E0005D906D907C90FC01EE0DFF1DC301B2017B
:1014F00020813181428153810E94565669AF7AAF73
:101500008BAF9CAF10E0000F111F000F111FF101F6
:10151000E00FF11F2B96FFAFEEAF2B97A080B180AD
:10152000C280D380F401E00FF11FC601B501208114
:101530003181428153810E9456566DAB7EAB8FAB99
:1015400098AF62962FAD6297E22FF0E0EE0FFF1F8B
:10155000EE0FFF1FD401AE0FBF1F2D913D914D9196
:101560005C9129962CAF3DAF4EAF5FAF29972F9678
:101570004EAD5FAD2F97E40FF51F608171818281C1
:10158000938129962CAD3DAD4EAD5FAD29970E945C
:10159000555669AB7AAB8BAB9CAB2F96AEADBFAD5E
:1015A0002F971C968D919D910D90BC91A02D259605
:1015B0008CAF9DAFAEAFBFAF2597D4011C962D91D8
:1015C0003D914D915C911F9721962CAF3DAF4EAF51
:1015D0005FAF2197A301920150582DA73EA74FA7B7
:1015E00058ABD601C501B05889A79AA7ABA7BCA72D
:1015F0002F96AEADBFAD2F97EA0EFB1EF7016081AF
:1016000071818281938129AD3AAD4BAD5CAD0E9471
:1016100055563B014C012F964EAC5FAC2F97040DF5
:10162000151DD8016D917D918D919C912DA93EA99B
:101630004FA958AD0E9455565B016C016DA57EA562
:101640008FA598A9A60195010E940F5A7B018C01D4
:1016500069A57AA58BA59CA5A40193010E940F5AA8
:101660009B01AC01C801B7010E9455561B012C011A
:101670006DA57EA58FA598A9A40193010E940F5A7C
:101680007B018C0169A57AA58BA59CA5A601950176
:101690000E940F5A9B01AC01C801B7010E94565627
:1016A0009B01AC01C201B1010E94C9565B016C01F2
:1016B00020E030E040E050E00E942F57882354F4AF
:1016C000C601B5012BED3FE049EC50E40E945656AF
:1016D0005B016C01E5968FADE597882351F0C6015B
:1016E000B5012BED3FE049EC50E40E9455565B01FB
:1016F0006C01C601B501E4962CAD3DAD4EAD5FADBC
:10170000E4970E940F5A29A93AA94BA95CA95F77CF
:101710000E944A597B018C012FE632E143E85AE3EB
:101720000E942F5787FD04C2C801B7010E940C58C0
:101730000E94A35778A76FA380E090E00E94CF5744
:101740007B018C01C601B501A80197010E943657A3
:101750006BA37CA38DA39EA369A97AA98BA99CA93D
:10176000A80197010E9436576F8F78A389A39AA387
:1017700025966CAD7DAD8EAD9FAD259721962CAD98
:101780003DAD4EAD5FAD21970E945556A801970122
:101790000E9436576B8F7C8F8D8F9E8F6BA17CA1A3
:1017A0008DA19EA120E030E040E05FEB0E940F5A47
:1017B0002BA13CA14DA15EA10E940F5A20E030E078
:1017C00040E85FE30E9456566F8B788F898F9A8F1F
:1017D00062964FAC6297E42DF0E0EE0FFF1FEE0F24
:1017E000FF1FCE010196E80FF91F29966CAC7DAC66
:1017F0008EAC9FAC299760827182828293822196FF
:101800002CAD3DAD4EAD5FAD21972D873E874F8707
:10181000588B41E050E05A8B498B88246096BFADCD
:101820006097AB2FB0E0AA0FBB1FAA0FBB1FA80F7A
:10183000B91F6896BFAFAEAF689761965FAC61970E
:10184000452C5524440C551C440C551C480E591E5F
:101850006A965FAE4EAE6A976C96FFAFEEAF6C972E
:101860002EC12AE0622E861421F09FE0792E871483
:1018700011F40E94023D88E1982E98140CF446C0A1
:101880006DA57EA58FA598A92BA13CA14DA15EA118
:101890000E940F5A7B018C0169A57AA58BA59CA596
:1018A0002F89388D498D5A8D0E940F5A9B01AC01AA
:1018B000C801B7010E9456567B018C016DA57EA51B
:1018C0008FA598A92F89388D498D5A8D0E940F5A5E
:1018D0005B016C0169A57AA58BA59CA52BA13CA1F8
:1018E0004DA15EA10E940F5A9B01AC01C601B5013A
:1018F0000E9455566DA77EA78FA798AB8394C7010A
:10190000D80189A79AA7ABA7BCA765C029893A893E
:10191000B90180E090E00E94CF572BA13CA14DA1DE
:101920005EA10E940F5A7B018C01C8010E943357AF
:101930006B8B7C8B8D8B9E8BB701C8010E94725A7A
:101940003B014C012D96AEADBFAD2D97ED90FD90B6
:101950000D911C9117FB109517F910952B96EEAD74
:10196000FFAD2B972080318042805380C801B701A2
:101970002B893C894D895E890E940F5A5B016C015D
:10198000C201B101A40193010E940F5A9B01AC0155
:10199000C601B5010E9456566DA77EA78FA798ABCA
:1019A000C801B701A40193010E940F5A7B018C0169
:1019B000C201B1012B893C894D895E890E940F5A71
:1019C0009B01AC01C801B7010E94555669A77AA7CF
:1019D0008BA79CA7882469AD7AAD8BAD9CAD2DA556
:1019E0003EA54FA558A90E9456566896AEADBFAD0C
:1019F00068976D937D938D939C9313976DA97EA9A2
:101A00008FA998AD29A53AA54BA55CA50E9456566D
:101A10006A96EEADFFAD6A9760837183828393838C
:101A20006C96AEADBFAD6C976D917D918D919C9193
:101A30002F8D38A149A15AA10E9456566C96EEAD41
:101A4000FFAD6C9760837183828393836B8D7C8DF4
:101A50008D8D9E8D2D853E854F8558890E945656C9
:101A60005B016C01CB01D6018D879E87AF87B88B58
:101A700000D000D069817A818B819C812D813E814B
:101A80004F815885E984FA840B851C8566964CAC99
:101A90005DAC6EAC7FAC6697ADB7BEB711964D929C
:101AA0005D926D927C9214970E94EA2DE989FA89E1
:101AB0003196FA8BE98B0F900F900F900F90498819
:101AC0005A886FA078A44614570408F4CACE00D0F0
:101AD00000D02F96AEADBFAD2F976D917D918D91BA
:101AE0009C91139714962D913D914D915C91179770
:101AF0001896ED90FD900D911C911B971C96AD9042
:101B0000BD90CD90DC901F9766964CAC5DAC6EACF2
:101B10007FAC6697ADB7BEB711964D925D926D9250
:101B20007C9214970E94EA2D0F900F900F900F90C7
:101B3000C55ADF4F0FB6F894DEBF0FBECDBFCF91B1
:101B4000DF911F910F91FF90EF90DF90CF90BF90AA
:101B5000AF909F908F907F906F905F904F903F904D
:101B60002F90089581E087BB85E08093B10092E0DB
:101B70009093B00080E88093B30090937000089534
:101B80001F920F920FB60F9211248F938091000332
:101B9000823020F445981092020308C0809100031F
:101BA0008E3F30F0459A81E08093020380E809C0BF
:101BB00080910203813041F4459810920203809194
:101BC00001038093B3001FC0459A81E08093020314
:101BD000809100038E3F28F08DEF8093B30082E068
:101BE00010C080910003823028F482E08093B3001B
:101BF0008DEF07C0809100038093B30080910003B4
:101C00008095809301038F910F900FBE0F901F90CE
:101C100018950F931F93CF93DF938C01EB0181E015
:101C200030C0DF01AA0FBB1FAA0FBB1FAC0FBD1F27
:101C300012966D917C911397601771070CF531978F
:101C4000EE0FFF1FEE0FFF1FEC0FFD1F22813381F0
:101C50000190F081E02D021B130B8D919C918E1B46
:101C60009F0B621B730B9C01029FC001039F900D91
:101C7000129F900D11240E940C5B6E0F7F1F16C0E7
:101C80008F5FE82FF0E0E417F5075CF2E417F50743
:101C900019F060E070E00AC041505040440F551FF9
:101CA000440F551FC40FD51F688179812FEF33E092
:101CB000261B370BC901DF91CF911F910F9108951A
:101CC000CF93DF939B01CFEFD3E0C81BD90B81E00B
:101CD00031C0DF01AA0FBB1FAA0FBB1FA20FB31F8A
:101CE0006D917C911197C617D7071CF53197EE0FB0
:101CF000FF1FEE0FFF1FE20FF31F208131810280D3
:101D0000F381E02DC21BD30B12968D919C911397FA
:101D10008E1B9F0B621B730B9C01C29FC001C39F54
:101D2000900DD29F900D11240E940C5B6E0F7F1FAF
:101D300017C08F5FE82FF0E0E417F50754F2E417BF
:101D4000F50719F060E070E00BC041505040440FBF
:101D5000551F440F551F240F351FF90162817381F0
:101D6000CB01DF91CF9108950F931F9308E711E006
:101D700085E090E0B80144E250E04BDF909312031D
:101D80008093110383E191E0B80144E250E041DF28
:101D900090931403809313031F910F9108950F9351
:101DA0001F938C01AB01662757FD6095762F0E942B
:101DB0009853C8010E94F1521F910F9108958F927C
:101DC0009F92AF92BF92CF92DF92EF92FF920F93CA
:101DD0001F93CF93DF930FB6F8948091190D9091D4
:101DE0001A0DA0911B0DB0911C0D0FBE2091FC028D
:101DF0003091FD024091FE025091FF02821B930B35
:101E0000A40BB50B8B3F9105A105B10508F49EC04D
:101E10000FB6F8948091190D90911A0DA0911B0D99
:101E2000B0911C0D0FBE8093FC029093FD02A09315
:101E3000FE02B093FF0280916C01823008F086C0F0
:101E40008FEE90E00E941D230FB6F8944091190D7B
:101E500050911A0D60911B0D70911C0D0FBE82E206
:101E60009DE02AE000E00E940D5380916C018823E0
:101E700089F58DEE90E00E941D238091EE029091F5
:101E8000EF0268E771E044E250E01ADFAC01662738
:101E900057FD6095762F82E29DE00E9498538BEE6D
:101EA00090E00E941D234091EC025091ED026627C4
:101EB00057FD6095762F82E29DE00E94985389EE4F
:101EC00090E00E941D2360910F037091100382E245
:101ED0009DE03BC087EE90E00E941D238091F202BE
:101EE0009091F30268E771E044E250E0E9DEAC0172
:101EF000662757FD6095762F82E29DE00E949853F9
:101F000085EE90E00E941D238091F0029091F102F5
:101F100068E771E044E250E0D3DEAC01662757FD8C
:101F20006095762F82E29DE00E94985383EE90E0C8
:101F30000E941D23349B05C082E29DE06FEF70E09C
:101F400004C082E29DE060E070E029DF0FB6F89403
:101F50008091190D90911A0DA0911B0DB0911C0D3F
:101F60000FBE2091F4023091F5024091F60250919B
:101F7000F702821B930BA40BB50B845F9140A0402A
:101F8000B04008F472C10FB6F8948091190D909189
:101F90001A0DA0911B0DB0911C0D0FBE8093F40281
:101FA0009093F502A093F602B093F70281E00E94AD
:101FB000974E2FEF33E0281B390B3093EF0220931D
:101FC000EE0280910F01909110018217930724F483
:101FD0003093100120930F01809111019091120113
:101FE0002817390724F430931201209311018091AE
:101FF0001103909112038217930744F01092EB02A1
:102000001092EA021092ED021092EC0280911303FA
:10201000909114032817390744F01092EB021092A4
:10202000EA021092ED021092EC02C90168E771E039
:1020300044E250E045DE5C01E090EC02F090ED02FD
:102040006701C81AD90AD0920E03C0920D0380907E
:102050000503909006039093060380930503B60151
:10206000882777FD8095982F2AE030E040E050E007
:102070000E94E15AEB017093080360930703002765
:10208000F7FC0095102FC801B7012BEB30E040E0C2
:1020900050E00E94E15A672F782F892F992787FDFA
:1020A0009A9581E06A3178071CF06FEF70E002C00A
:1020B0006B517040C60FD71FD0931003C0930F030E
:1020C0002EE1C216D10464F56091030370910403FC
:1020D0006C0D7D1D81E06134780714F060E471E0DF
:1020E0009B018EEF603C780714F420EC3EEF3093B8
:1020F000040320930303B901882777FD8095982F67
:1021000024E030E040E050E00E94415B30930A035D
:1021100020930903C20FD31FD0931003C0930F0362
:10212000C601D7FE03C0909581959F4F82359105DA
:102130001CF4E1E0F0E007C061E570E00E940C5B98
:10214000CB01E5E0F0E08A30910534F069E070E021
:102150000E940C5BCB01329604970CF03196A818C4
:10216000B908B501882777FD8095982F3CE0660F68
:10217000771F881F991F3A95D1F73E2F22274427B2
:1021800037FD4095542F0E94415BA90130930C0309
:1021900020930B0380910F0390911003480F591F58
:1021A0004F3F510519F014F04FEF50E09A0157FFDF
:1021B00002C020E030E03093100320930F038091A1
:1021C000EA029091EB02892B19F02093000302C0E0
:1021D000109200030FB6F8948091190D90911A0D8A
:1021E000A0911B0DB0911C0D0FBE2091F8023091F3
:1021F000F9024091FA025091FB02821B930BA40B4F
:10220000B50B88589341A040B04078F10FB6F894D0
:102210008091190D90911A0DA0911B0DB0911C0D7C
:102220000FBE8093F8029093F902A093FA02B09344
:10223000FB0280E00E94974E2FEF33E0281B390B02
:102240003093F3022093F2028091F0029091F10218
:10225000281739073CF48091110390911203281735
:10226000390714F4449801C0449ADF91CF911F912B
:102270000F91FF90EF90DF90CF90BF90AF909F9025
:102280008F900895FC01673020F086E1858380E01F
:102290000895262F30E060FD02C0663019F48DB538
:1022A0008E7F02C08DB581608DBD8CB58C7F8CBD5D
:1022B0004CB522FD02C090E001C092E03695279512
:1022C000822F8170842B892B8CBD81E00895FC01C5
:1022D0008481E82FF0E00C94E04EFC018481E82F2B
:1022E000F0E00C94DA4EDC016EBDFA0120E030E043
:1022F0000DB407FEFDCF80818EBD0DB407FEFDCF6E
:1023000081818EBD2E5F3F4F329682E020303807AC
:1023100079F70DB407FEFDCF8FEF8EBD0DB407FE2C
:10232000FDCF8FEF8EBD0DB407FEFDCF8FEF8EBDBD
:102330000DB407FEFDCF8EB51A968C931A978F7148
:10234000853011F481E0089581E115968C931597FD
:10235000CD01C3DF80E00895FC010FB6F8948091B1
:10236000190D90911A0DA0911B0DB0911C0D0FBE6F
:10237000AC013FEF13C00FB6F8948091190D909106
:102380001A0DA0911B0DB0911C0D0FBE841B950B57
:102390008D52914018F022878FE00DC03EBD0DB4E4
:1023A00007FEFDCF2EB52F3F31F322872E3F11F4CC
:1023B00081E008958DE08583CF018FDF80E008956F
:1023C000CF93DF93EC018E818823C9F08FEF8EBD10
:1023D0002F8138854FEF04C00DB407FEFDCF4EBDF1
:1023E0002F5F3F4FC901019781509240A8F3388772
:1023F0002F830DB407FEFDCFCE016FDF1E82DF916C
:10240000CF910895DF92EF92FF920F931F93CF9396
:10241000DF93EC01D62E79018A01D2DFCE0157DF9E
:102420000FB6F8948091190D90911A0DA0911B0D83
:10243000B0911C0D0FBE9C014FEF4EBD0DB407FEB9
:10244000FDCF8EB58F3F81F00FB6F8948091190DB6
:1024500090911A0DA0911B0DB0911C0D0FBE821B07
:10246000930B8C52914048F38D2D80648EBD0DB43A
:1024700007FEFDCF28E130E0D801C701022E04C0DD
:10248000B695A795979587950A94D2F78EBD0DB40A
:1024900007FEFDCF285030408FEF283F380761F707
:1024A000DD2011F485E906C058E0D51611F487E85F
:1024B00001C08FEF8EBD0DB407FEFDCF90E02FEF72
:1024C0002EBD0DB407FEFDCF8EB587FF02C0915023
:1024D000B9F78A87DF91CF911F910F91FF90EF900D
:1024E000DF900895BF92CF92DF92EF92FF920F9309
:1024F0001F938C01B62E69017A0167E320E030E07A
:1025000040E050E07FDFC8016B2DA70196017ADF24
:102510001F910F91FF90EF90DF90CF90BF900895A3
:10252000CF92DF92EF92FF920F931F93CF93DF939F
:10253000EC017A018B0169014115510561057105B5
:1025400011F482E150C08B85833039F029E0EE0C24
:10255000FF1C001F111F2A95D1F7CE0168E1A801C9
:10256000970150DF882311F084E03DC0CE016EEF6B
:10257000A601B9DE882309F437C00FB6F89480911C
:10258000190D90911A0DA0911B0DB0911C0D0FBE4D
:102590009C014FEF4EBD0DB407FEFDCF1EB51F3F92
:1025A00089F00FB6F8948091190D90911A0DA091B1
:1025B0001B0DB0911C0D0FBE821B930B88559240D2
:1025C00048F31EC0CE016DE020E030E040E050E076
:1025D00019DF882339F41EBD0DB407FEFDCF8EB57B
:1025E000882381F084E18D83CE0177DE80E0DF9166
:1025F000CF911F910F91FF90EF90DF90CF900895B2
:1026000085E1F1CFCE0169DE81E0F1CF8F929F921B
:10261000AF92BF92CF92DF92EF92FF920F931F93F0
:10262000CF93DF93EC015A016B01490101151105AC
:1026300009F477C0C801820F931F8150924008F0BF
:102640006CC08E81882371F088819981AA81BB81B9
:10265000481759076A077B0729F48F8198858816E0
:10266000990608F5A882B982CA82DB828B858330FD
:1026700039F069E0AA0CBB1CCC1CDD1C6A95D1F7B3
:10268000CE0161E1A6019501BDDE882319F083E04A
:102690008D8343C0CE0160DE882309F43EC01886D6
:1026A0001F8281E08E838FEF8EBD8F8198852FEF03
:1026B00005C00DB407FEFDCF2EBD01968815990506
:1026C000C0F398878F83D801119720E030E09FEF07
:1026D0000BC00DB407FEFDCF8EB5F701E20FF31F5F
:1026E00080839EBD2F5F3F4F2A173B0790F30DB4A9
:1026F00007FEFDCF8EB5AE0DBF1D8C932F813885A3
:10270000200F311F38872F838985882319F02050A7
:10271000324038F0CE0154DE04C0CE01DEDD80E070
:1027200001C081E0DF91CF911F910F91FF90EF9059
:10273000DF90CF90BF90AF909F908F900895EF92D1
:10274000FF920F931F93790120E030E000E012E048
:102750005DDF1F910F91FF90EF900895BF92CF9290
:10276000DF92EF92FF920F931F93CF93DF93EC01D1
:10277000B62E842F1B8619861E821D824C830FB6AF
:10278000F8942091190D30911A0D40911B0D509124
:102790001C0D0FBE69010E94C64ECE019EDD23981E
:1027A0002B98229A219A209A83E58CBD8DB58E7F35
:1027B0008DBD80E09FEF9EBD0DB407FEFDCF8F5F06
:1027C0008A30C9F7CE0183DD12C00FB6F89480912C
:1027D000190D90911A0DA0911B0DB0911C0D0FBEFB
:1027E0008C199D09815D974010F081E05BC0CE019E
:1027F00060E020E030E040E050E004DE182F8A87FF
:10280000813019F7CE0168E02AEA31E040E050E07B
:10281000F9DD82FF02C01B8711C080E02FEF2EBDC3
:102820000DB407FEFDCF9EB58F5F8430C1F79A8748
:102830009A3A11F082E036C082E08B878B85823035
:1028400021F0EE24FF24870118C0E12CF12C012D8A
:10285000F0E41F2F12C00FB6F8948091190D9091DB
:102860001A0DA0911B0DB0911C0D0FBE8C199D0966
:10287000815D974010F088E015C0CE0169E2A801A3
:10288000970130DE8A87882331F78B85823021F5E6
:10289000CE016AE320E030E040E050E0B3DD882381
:1028A00031F086E08D83CE0118DD80E01AC08FEF15
:1028B0008EBD0DB407FEFDCF8EB5807C803C11F43B
:1028C00083E08B8780E09FEF9EBD0DB407FEFDCFB8
:1028D0002EB58F5F8330C1F7CE01FFDCCE016B2DAB
:1028E000D1DCDF91CF911F910F91FF90EF90DF909E
:1028F000CF90BF900895CF93DF93EC01DB0180E090
:1029000090E020E2FD01E80FF91F208301968B3053
:102910009105C1F757E040E021C02E3219F086EF53
:1029200090E007C05A3019F15AE048E017C032175A
:10293000F1F0FC01019634913323C9F75417B8F034
:102940002132A8F02F3798F4822F81568A3108F46B
:102950002052FD01E40FF11D20834F5F29912223B6
:10296000E1F690E08C91803219F091E001C090E0A6
:10297000892FDF91CF910895DF92EF92FF920F930D
:102980001F93CF93DF937C01D62EEC0110E000E083
:1029900088818032D1F0083061F4E091220DF0910D
:1029A000230D0190F081E02D82E29DE06EE2099519
:1029B0001F5FE091220DF091230D0190F081E02D39
:1029C00082E29DE0688109951F5F0F5F21960B30C1
:1029D000F9F6F701838588718031B9F4E091220D11
:1029E000F091230D0190F081E02D82E29DE06FE2F5
:1029F0000AC0E091220DF091230D0190F081E02DAD
:102A000082E29DE060E209951F5F1D1590F3DF9162
:102A1000CF911F910F91FF90EF90DF900895DF937A
:102A2000CF9300D00F92CDB7DEB7282F6AE00E9477
:102A3000005B805D8983822F0E94005B905D9A839A
:102A40001B82E091220DF091230D0280F381E02D95
:102A500082E29DE0BE016F5F7F4F09950F900F905E
:102A60000F90CF91DF910895EF92FF920F931F93F4
:102A70008C01812F869586958695D1DFE091220D78
:102A8000F091230D32E2E32E3DE0F32E0190F08130
:102A9000E02DC7016AE30995C80125E09695879561
:102AA0002A95E1F78F73BBDFE091220DF091230DA2
:102AB0000190F081E02DC7016AE309950F71107054
:102AC000802F880FACDF1F910F91FF90EF9008953A
:102AD0006F927F928F929F92AF92BF92CF92DF922E
:102AE000EF92FF920F931F93CF93DF93EC017A0144
:102AF0008B012C81222309F480C08A899B89AC89AF
:102B0000BD8984179507A607B70708F476C085C066
:102B1000E114F1040105110549F41D821E821F8292
:102B2000188619861A861B861C8665C029853A85F3
:102B30004B855C85EA8DFB8D858590E0099621505B
:102B400030404040504039014A01082E04C096945C
:102B50008794779467940A94D2F72F5F3F4F4F4F33
:102B60005F4F0894E108F108010911095701680154
:102B700004C0D694C794B794A7948A95D2F70894C2
:102B8000E11CF11C011D111DA614B704C804D904D1
:102B900028F0211531054105510549F48E899F8999
:102BA000A88DB98D8D839E83AF83B88716C0A61874
:102BB000B708C808D90811C04D815E816F8178853A
:102BC0008A8D9B8D94010E94DB200894A108B10896
:102BD000C108D108882331F410C045E0842E912C1F
:102BE0008C0E9D1EA114B104C104D10429F7E986FD
:102BF000FA860B871C8781E001C080E0DF91CF91CE
:102C00001F910F91FF90EF90DF90CF90BF90AF900A
:102C10009F908F907F906F900895223009F078CF29
:102C2000E6CFCF93DF93EC01462F6D857E858F85B0
:102C300098890E94C31E882319F420E030E00AC05E
:102C40008989282F30E055E0220F331F5A95E1F78C
:102C5000295E3C4FC901DF91CF9108950F931F93D7
:102C6000CF93DF938C01FC0184818823B9F18381A8
:102C700087FF32C0C80161E0D4DFEC01009771F139
:102C8000F8018481823040F482899389A489B589CE
:102C90008C8F9D8FAE8FBF8FF80186899789A08D0D
:102CA000B18D9B8F8A8FCD01AA27BB279D8B8C8BE3
:102CB000E0911503F0911603309751F0BE016A5E62
:102CC0007F4FCE0148960995888D998D9B8B8A8B75
:102CD000F80183818F778383F8D701C080E0DF918B
:102CE000CF911F910F910895CF93DF93EC01B6DF41
:102CF000882311F01C8281E0DF91CF9108956F92BB
:102D00007F928F929F92AF92BF92CF92DF92EF927B
:102D1000FF920F931F93DF93CF9300D000D0CDB7D6
:102D2000DEB77C015A016B01DC0114968C9114977B
:102D3000813009F08CC013968C9181FF88C09BC0B4
:102D40000097A105B10511F481E082C0F70161840B
:102D5000728483849484C701B601A501B9DE8823F7
:102D600009F475C0D7015A968D919C915B97A11477
:102D7000B104C104D10489F456964D915D916D91D1
:102D80007C9159970E944D21882309F460C0F70176
:102D9000168A178A108E118E3DC0D70115964D9157
:102DA0005D916D917C9118979E012F5F3F4F0E941E
:102DB000DB20882309F44BC0D7015A96ED91FC9192
:102DC0005B9749815A816B817C818789803129F0A9
:102DD00088EF9FEFAFEFBFE004C088EF9FEFA0E068
:102DE000B0E0481759076A077B07A0F4CF010E949B
:102DF0004D21882361F1F7014581568167817085F6
:102E0000828D938D0FEF1FEF2FEF3FE00E94402048
:102E10008823E9F0D7015296AD92BD92CD92DC9213
:102E2000559713968C911397806813968C93C701CE
:102E300015DF882361F0B601A5016A147B048C04B8
:102E40009D0410F4B401A301C70142DE01C080E07B
:102E50000F900F900F900F90CF91DF911F910F91D6
:102E6000FF90EF90DF90CF90BF90AF909F908F90AA
:102E70007F906F900895F70182899389A489B5891D
:102E800084179507A607B70708F05ACFE0CFCF936E
:102E9000DF93EC0140E050E060E070E030DF882339
:102EA00059F0CE0161E0BDDEFC01009729F085EE0E
:102EB00080831C820AD701C080E0DF91CF91089502
:102EC0002F923F924F925F926F927F928F929F923A
:102ED000AF92BF92CF92DF92EF92FF920F931F9328
:102EE000CF93DF93EC012A018C81882309F4C5C0BC
:102EF0008B8180FFC2C0D7C025014E185F084B01EF
:102F000075E0272E312C2C0E3D1E3201B0C02985D4
:102F10003A854B855C856FEFA62E61E0B62EA22226
:102F2000B3228C8179018A0199E016950795F7946F
:102F3000E7949A95D1F7EA8DFB8D823049F4428D62
:102F4000538D648D758D4E0D5F1D601F711F3FC0C9
:102F5000D480DA94DE20A114B104D9F4DD20C9F4C0
:102F6000211531054105510549F48E899F89A88DA8
:102F7000B98D8D839E83AF83B8870BC04D815E81F1
:102F80006F817885CF0191010E94DB20882309F4AD
:102F900074C0EA8DFB8D4D815E816F8178854250D2
:102FA000504060407040058404C0440F551F661FA8
:102FB000771F0A94D2F786859785A089B189480F33
:102FC000591F6A1F7B1F4D0D511D611D711D80E032
:102FD00092E08A199B0963018615970508F46C0134
:102FE0008B8186FD06C080E0C81682E0D80609F015
:102FF00072C08091130190911401A0911501B091BC
:103000001601481759076A077B0709F464C08091C5
:10301000170590911805950186017401F7DA882348
:1030200061F18C0C9D1C12C09501295E3C4FA901D9
:103030004C0D5D1DD401F90102C081918D93E417FF
:10304000F507D9F7E21BF30B8E0E9F1E960140E0A9
:1030500050E089859A85AB85BC85820F931FA41F9C
:10306000B51F89879A87AB87BC876C187D08611468
:10307000710409F04CCFA20102C04FEF5FEFCA010B
:10308000DF91CF911F910F91FF90EF90DF90CF9044
:10309000BF90AF909F908F907F906F905F904F9078
:1030A0003F902F900895AA88BB88CC88DD88E9845A
:1030B000FA840B851C859A0140E050E0D601C501D9
:1030C0008E199F09A00BB10B82179307A407B507B0
:1030D00008F412CF14CFCB01BA0140E054D68823B4
:1030E00009F0A2CFCACFCF92DF92EF92FF920F9357
:1030F0001F93DF93CF930F92CDB7DEB76C01FC0126
:103100008481823068F0E184F28403851485C601ED
:10311000BE016F5F7F4F41E050E0D2DE019769F062
:1031200020E030E0C9010F90CF91DF911F910F9106
:10313000FF90EF90DF90CF900895F6018185928502
:10314000A385B4854F96A11DB11D81879287A38762
:10315000B487F5E016950795F794E794FA95D1F7BB
:103160008E2D8F70282F30E0E5E0220F331FEA9577
:10317000E1F7295E3C4FD6CFCF92DF92EF92FF92DC
:103180000F936C0102E2E02E0DE0F02EAC01452F12
:10319000552746954454584F60E070E0C7012AE037
:1031A00000E00E940D53E091220DF091230D01905B
:1031B000F081E02DC7016DE20995C601A5E0969565
:1031C0008795AA95E1F78F702ADCE091220DF091A6
:1031D000230D0190F081E02DC7016DE209958C2D42
:1031E0008F711DDC0F91FF90EF90DF90CF900895CD
:1031F0000F931F93CF93DF93EC018B018C81882376
:1032000009F041C0FB0187898031B1F482E08C83F1
:103210001E8A1F8A188E198E808D918DA0E0B0E0D5
:1032200025E0880F991FAA1FBB1F2A95D1F78A8B0B
:103230009B8BAC8BBD8B15C0803229F583E08C83D2
:10324000FB01428D538D648D758D4E8B5F8B688F26
:10325000798F9E012E5E3F4FC8010E94A4218823D2
:1032600091F01B8F0A8F81E08B831D821E821F824B
:10327000188619861A861B861C861D861E861F8642
:10328000188A198A01C080E0DF91CF911F910F91B8
:1032900008951F93CF93DF93EC01142FE62FF0E0F6
:1032A00045E0EE0FFF1F4A95E1F7E95EFC4F83858D
:1032B000817121F0812F827409F053C0698B809154
:1032C000130190911401A0911501B09116018D8701
:1032D0009E87AF87B88B84899589A0E0B0E0BC0158
:1032E00055274427828D938DA0E0B0E0482B592BC1
:1032F0006A2B7B2B4E8B5F8B688F798F838590E059
:1033000088719070009751F4848D958DA68DB78D3E
:103310008A8B9B8BAC8BBD8B81E00CC0409709F5F1
:103320009E012E5E3F4F8A8D9B8D0E94A421882393
:10333000C1F084E08C83812F8F708B831D821E826D
:103340001F82188619861A861B861C8616FD02C0E7
:1033500081E008C0CE0140E050E060E070E0CFDCEA
:1033600001C080E0DF91CF911F910895DF92EF922D
:10337000FF920F931F93CF93DF938C01EB017A01A0
:10338000D22EFC018481882329F5822F807380331B
:1033900009F18A8D9B8D938F828F65E0440F551FB5
:1033A0006A95E1F760E070E0CE0192DB882391F04E
:1033B000CE0199DEFC01009769F08081882351F0ED
:1033C000853E41F08E3231F06E2D6F70C8014D2D6B
:1033D00060DF01C080E0DF91CF911F910F91FF90DE
:1033E000EF90DF9008952F923F924F925F926F92ED
:1033F0007F928F929F92AF92BF92CF92DF92EF9285
:10340000FF920F931F93DF93CF93CDB7DEB76F97E4
:103410000FB6F894DEBF0FBECDBF6C016D8F4E8F1F
:10342000FC01158216821782108611861286138679
:103430001486862F90E053E0452E512C48225922C5
:1034400031E0632E712C6822792224E0822E912CA7
:10345000882299221E010894211C311C242F2E5FE2
:103460002F8F02E0A02EB12CA822B92290C0F70124
:103470008081882309F491C0853E09F488C08E328A
:1034800009F485C0838583FD82C010E00CC0E09103
:10349000220DF091230D0190F081E02D82E29DE05C
:1034A00060E209951F5FFE8D1F1789F741145104D3
:1034B00011F460E001C06EE0C7015EDA61147104CE
:1034C00099F0F701808D918D57DEE091220DF091FA
:1034D000230D0190F081E02D82E29DE060E20995EC
:1034E000F70186899789C0DAF70183858871803171
:1034F000C9F0A114B104B1F0E091220DF091230DB7
:103500000190F081E02D82E29DE060E20995F701F3
:10351000448D558D668D778D82E29DE02AE000E036
:103520000E940D5382E29DE00E94F15281149104A9
:1035300071F1F70183858871803149F5F601818544
:103540009285A385B48515E0B695A795979587953F
:103550001A95D1F78C018CE092E09A8389831D82C1
:10356000A80141505040C101B60121E0FFDE88238F
:1035700021F0C1016D8D4F8D36DFA5E0000F111FC9
:10358000AA95E1F7A80160E070E0C601A1DAC601E2
:10359000AADD7C01009709F06ACF6F960FB6F89408
:1035A000DEBF0FBECDBFCF91DF911F910F91FF9076
:1035B000EF90DF90CF90BF90AF909F908F907F90D3
:1035C0006F905F904F903F902F900895CF93DF932F
:1035D000EC019C012B5F3F4F8A8D9B8D41E050E0B9
:1035E00060E070E01FD78823A1F08E899F89A88DA5
:1035F000B98D0097A105B10559F48D819E81AF81E8
:10360000B8858E8B9F8BA88FB98F8B8180688B83B9
:1036100081E0DF91CF9108952F923F924F925F9278
:103620007F928F929F92AF92BF92CF92DF92EF9252
:10363000FF920F931F93DF93CF9300D000D000D061
:10364000CDB7DEB76C01162F072F5E834D83DC01EB
:1036500014968C911497813009F06FC113968C9158
:1036600081FF6BC189C1F6014289538964897589DB
:1036700081859285A385B48584179507A607B7072A
:1036800029F0C60125DA882309F457C1812F902F2C
:103690009C0129012D803E8015C1D6015A96ED91DD
:1036A000FC915B97DA01C90179E0B695A7959795EA
:1036B00087957A95D1F774807A9478226FEF862E69
:1036C00061E0962E82229322772009F04EC0811469
:1036D000910409F04AC0D60115964D915D916D9106
:1036E0007C911897411551056105710581F4569635
:1036F0008D919D910D90BC91A02D0097A105B105D4
:1037000051F1F60185839683A783B0872EC0CF0140
:103710009E012F5F3F4F4FD5882319F440E050E0C2
:1037200012C129813A814B815C81D6015A96ED9173
:10373000FC915B978789803129F088EF9FEFAFEF8D
:10374000BFE004C088EF9FEFA0E0B0E02817390782
:103750004A075B0728F0C60139DF882331F4EDC042
:10376000F601258336834783508780E092E08819ED
:10377000990951018215930508F45C01D6015A9606
:10378000ED91FC915B971596ED90FD900D911C913C
:1037900018978EEF9FEFAFEFBFEFE80EF91E0A1FED
:1037A0001B1F058404C0EE0CFF1C001F111F0A9490
:1037B000D2F786859785A089B189E80EF91E0A1F80
:1037C0001B1FE70CF11C011D111D90E0A91692E0D2
:1037D000B90651F58091130190911401A091150142
:1037E000B09116018E159F05A007B10761F48FEF08
:1037F0009FEFAFEFBFEF8093130190931401A0935D
:103800001501B09316018091170590911805B80124
:10381000A70192010E949012882309F48EC0A0E0B3
:10382000B2E04A0E5B1E3CC08114910401F5F60122
:10383000218532854385548582899389A489B589F8
:10384000281739074A075B0790F03FD2882309F40D
:1038500074C0E0921301F0921401009315011093CB
:1038600016018091190581608093190507C0C80170
:10387000B70141E088D2882309F45FC09401295E32
:103880003C4FA9014A0D5B1DD201F90102C08D9187
:103890008193E417F507D9F7E21BF30B4E0E5F1E79
:1038A0002A183B08950140E050E0F6018185928599
:1038B000A385B485820F931FA41FB51F81879287AC
:1038C000A387B487D60119962D913D914D915C91B6
:1038D0001C972114310409F0E0CE52968D919D91F0
:1038E0000D90BC91A02D82179307A407B50748F44B
:1038F000F601228B338B448B558B838180688383C5
:1039000011C08091150390911603892B59F08D8178
:103910009E81892B39F0D60113968C91139780687C
:1039200013968C93F601838183FF04C0C60196D958
:10393000882319F04D815E8106C081E0D601129680
:103940008C934FEF5FEFCA0126960FB6F894DEBF57
:103950000FBECDBFCF91DF911F910F91FF90EF90E0
:10396000DF90CF90BF90AF909F908F907F905F90AF
:103970004F903F902F90089582FD75CE87CEDB014A
:103980000D900020E9F71197A61BB70BAD0144CEAF
:10399000DF93CF930F92CDB7DEB76983BE016F5F20
:1039A0007F4F41E050E038DE0F90CF91DF910895D6
:1039B000DF92EF92FF920F931F93CF93DF93EC016F
:1039C00005DE882309F44DC0EA8DFB8DED80FE8075
:1039D0000F8118858EEF9FEFAFEFBFEFE80EF91E56
:1039E0000A1F1B1F058404C0EE0CFF1C001F111FC3
:1039F0000A94D2F786859785A089B189E80EF91EC9
:103A00000A1F1B1FD4800894E108F108010911095D
:103A10000AC0C801B7016D0D711D811D911D90D1A6
:103A20008823F9F0DA94DD20A1F7EA8DFB8D20E000
:103A300032E040E050E0058404C0220F331F441FF1
:103A4000551F0A94D2F78A899B89AC89BD89820F58
:103A5000931FA41FB51F8A8B9B8BAC8BBD8B81E002
:103A600001C080E0DF91CF911F910F91FF90EF9007
:103A7000DF9008956F927F928F929F92AF92BF9244
:103A8000CF92DF92EF92FF920F931F93DF93CF932A
:103A9000CDB7DEB72B970FB6F894DEBF0FBECDBF04
:103AA0005C016B01822EDC0114968C91882309F055
:103AB000CDC0CA018E010F5F1F4FB8010E947B1459
:103AC000882309F4C3C0F601828D938DD5015B96DE
:103AD0009C938E935A971582168217821086D60170
:103AE00019961D921D921D921C921C9799243801C3
:103AF00040C0C601F8DAFC01009709F4A7C0A5E0B0
:103B000016950795F794E794AA95D1F71E2D1F7087
:103B10008081882311F0853ED1F4992091F4D5015C
:103B200051961C93519720911301309114014091AB
:103B30001501509116011D962D933D934D935C9365
:103B400050978081882399F49924939421C0C301CC
:103B5000BF014BE050E00E94FF09009751F4882D0F
:103B60008073803309F472C0C501612F6CC0992441
:103B70009394F601E184F284038514858289938904
:103B8000A489B589E816F9060A071B0708F4B1CF1E
:103B9000882D8271823109F059C0992039F0C50110
:103BA00061E03FD88C01009781F450C0D601149693
:103BB0008C91823009F44AC0C601FADE882309F4E8
:103BC00045C0F501118A07E113E080E2D8011D929A
:103BD0008A95E9F7D801FE0131968BE001900D92AC
:103BE0008150E1F7E0911503F0911603309739F019
:103BF000B801625F7F4FC8014096099509C081E214
:103C000098E2F801918B808B80E098E09787868717
:103C1000D80150968D919C91519753969C938E9379
:103C2000529759969C938E9358971E968D919C917E
:103C30001F9757969C938E93569747D0882331F0C1
:103C4000C501F5016189482D24DB01C080E02B9678
:103C50000FB6F894DEBF0FBECDBFCF91DF911F919D
:103C60000F91FF90EF90DF90CF90BF90AF909F901B
:103C70008F907F906F9008950F931F93DF93CF9352
:103C8000CDB7DEB76C970FB6F894DEBF0FBECDBFD1
:103C90009C01AB018CE092E09A8389831D828E01A6
:103CA0000F5F1F4FC801B90122E0E4DE882311F045
:103CB000C801EDD86C960FB6F894DEBF0FBECDBF2D
:103CC000CF91DF911F910F9108958091190588235D
:103CD00099F1409113015091140160911501709177
:103CE0001601809117059091180527E133E00E9495
:103CF0009012882319F140911A0550911B0560918B
:103D00001C0570911D05411551056105710591F066
:103D1000809117059091180527E133E00E949012D9
:103D2000882361F010921A0510921B0510921C0551
:103D300010921D051092190581E0089580E0089504
:103D4000EF92FF920F931F937B018C01BEDF8823BC
:103D5000A9F0E7E1F3E0119285E0E731F807D9F740
:103D6000E0921301F09214010093150110931601D3
:103D70008091190581608093190581E01F910F9151
:103D8000FF90EF900895DF92EF92FF920F931F93B1
:103D90007B018C01D42E8091130190911401A0918C
:103DA0001501B09116018E159F05A007B107B9F056
:103DB0008CDF8823D9F08091170590911805B80100
:103DC000A70127E133E00E949F13882379F0E09256
:103DD0001301F092140100931501109316018091C4
:103DE00019058D298093190581E001C080E01F919C
:103DF0000F91FF90EF90DF9008958F929F92AF9276
:103E0000BF92CF92DF92EF92FF920F931F93CF93C7
:103E1000DF936C01142F70931805609317054423EA
:103E200021F48824992454013FC0453008F01AC178
:103E300060E070E080E090E040E0A5DF882309F4D6
:103E400011C1C12FD0E02197FE0174E0EE0FFF1FDA
:103E50007A95E1F7E95EFC4FE254FE4F8081EE5B1C
:103E6000F14090E08F779070892B09F0FBC0E6530A
:103E7000FE4F80819181A281B38184369105A10595
:103E8000B10508F4EFC064E0CC0FDD1F6A95E1F7DF
:103E9000C352DB4F88809980AA80BB808114910433
:103EA000A104B10409F4DEC0C501B40140E06BDF38
:103EB000882309F4D7C08091220390912303805076
:103EC000924009F0CFC020912703222309F4CAC0F1
:103ED0008091250390912603892B09F4C3C080911A
:103EE0002403882309F4BEC0F601228B80912403A9
:103EF0008483158661E070E007C04F5FF601458757
:103F00004150483008F0AEC0F6014585848190E00C
:103F10009B01042E02C0220F331F0A94E2F782177E
:103F2000930759F720912D0330912E032115310568
:103F300019F040E050E008C020913B0330913C0371
:103F400040913D0350913E03F6012583368347831C
:103F50005087E0902503F090260300E010E0E80C85
:103F6000F91C0A1D1B1DE38AF48A058B168B8091B0
:103F7000280390912903918F808F6091270370E02F
:103F800080E090E00E94E15A6E0D7F1D801F911F1E
:103F9000F601628F738F848F958F20912803309163
:103FA000290355E0220F331F5A95E1F721503E4F68
:103FB000232F3327269540E050E0260F371F481F58
:103FC000591F26873787408B518B80912A03909108
:103FD0002B03009719F0A0E0B0E008C080913703F0
:103FE00090913803A0913903B0913A03850174018F
:103FF000E21AF30A040B150BA8019701280F391FC9
:104000004A1F5B1FF601058404C0569547953795F6
:1040100027950A94D2F72187328743875487253F13
:10402000FFE03F07F0E04F07F0E05F0710F48CE09F
:1040300006C0255F3F4F4040504028F480E1F60124
:10404000878B81E010C08091430390914403A0913D
:104050004503B0914603F601828F938FA48FB58FED
:1040600080E2EECF80E0DF91CF911F910F91FF9022
:10407000EF90DF90CF90BF90AF909F908F9008957A
:104080004F925F926F927F928F929F92AF92BF9268
:10409000CF92DF92EF92FF920F931F93CF93DF9314
:1040A000EC016A017B0128013901423051056105AB
:1040B000710508F46EC089859A85AB85BC8501962B
:1040C000A11DB11D84179507A607B70708F461C0A5
:1040D0002B893C894D895E898F89803129F4992704
:1040E0008F2D7E2D6D2D09C0C701B60117E0969565
:1040F0008795779567951A95D1F74B015C01820EEC
:10410000931EA41EB51E8091130190911401A091DD
:104110001501B091160188169906AA06BB0631F062
:10412000C501B40140E02FDE882399F18F898031E9
:1041300049F4F601F070EE0FFF1FE95EFC4F51826B
:1041400040820DC0F601EF77F070EE0FFF1FEE0F0B
:10415000FF1FE95EFC4F4082518262827382809130
:1041600019058160809319058A89823080F08D81DC
:104170009E81AF81B885880E991EAA1EBB1E8092B3
:104180001A0590921B05A0921C05B0921D0581E0B6
:1041900001C080E0DF91CF911F910F91FF90EF90D0
:1041A000DF90CF90BF90AF909F908F907F906F9057
:1041B0005F904F900895CF92DF92EF92FF920F930E
:1041C0001F93CF93DF93EC017A018B0169018985FD
:1041D0009A85AB85BC850196A11DB11D84179507F5
:1041E000A607B70708F44FC02B893C894D895E8923
:1041F0008F89803129F49927812F702F6F2D09C065
:10420000C801B701E7E09695879577956795EA9598
:10421000D1F7260F371F481F591F80911301909126
:104220001401A0911501B0911601281739074A070A
:104230005B0731F0CA01B90140E0A5DD882319F11F
:104240008F89803159F4F701F070EE0FFF1FE95E9E
:10425000FC4F80819181A0E0B0E00EC0F701EF77C4
:10426000F070EE0FFF1FEE0FFF1FE95EFC4F808125
:104270009181A281B381BF70F60180839183A28373
:10428000B38381E001C080E0DF91CF911F910F9156
:10429000FF90EF90DF90CF900895AF92BF92CF92B2
:1042A000DF92EF92FF920F931F93DF93CF9300D093
:1042B00000D0CDB7DEB76C017A018B0182E090E0CF
:1042C000A0E0B0E0F60180839183A283B3835E0116
:1042D0000894A11CB11CC601B801A70195016BDFB0
:1042E000882311F1C601B801A70100E010E020E029
:1042F00030E0C6DE8823C1F0E980FA800B811C81A2
:10430000F6018789803129F088EF9FEFAFEFBFE09A
:1043100004C088EF9FEFA0E0B0E0E816F9060A07B6
:104320001B07C8F281E001C080E00F900F900F9052
:104330000F90CF91DF911F910F91FF90EF90DF9041
:10434000CF90BF90AF9008954F925F926F927F92FF
:104350008F929F92AF92BF92CF92DF92EF92FF9295
:104360000F931F93DF93CF9300D000D0CDB7DEB76C
:104370006C0149835A836B837C833901EE24FF24CB
:1043800087012E010894411C511C812CA2E09A2E19
:10439000A12CB12C49815A816B817C81C60192018B
:1043A0000ADF882351F1D501C401F601058404C058
:1043B000880F991FAA1FBB1F0A94D2F7E80EF91E97
:1043C0000A1F1B1F29813A814B815C8187898031BB
:1043D00029F088EF9FEFAFEFBFE004C088EF9FEFB9
:1043E000A0E0B0E0281739074A075B0798F2F3010D
:1043F000E082F1820283138381E00F900F900F908F
:104400000F90CF91DF911F910F91FF90EF90DF9070
:10441000CF90BF90AF909F908F907F906F905F9064
:104420004F9008952F923F924F925F926F927F929A
:104430008F929F92AF92BF92CF92DF92EF92FF92B4
:104440000F931F93DF93CF93CDB7DEB72F970FB6A0
:10445000F894DEBF0FBECDBF1C014A875B876C8717
:104460007D873F872E87D9010D911D912D913C911C
:10447000011511052105310549F04801590108943C
:10448000811C911CA11CB11C198610C0FC018080EC
:104490009180A280B38019868A859B85AC85BD8575
:1044A0000197A105B10511F491E09987D101199601
:1044B0008D919D910D90BC91A02D0196A11DB11DD6
:1044C0008D839E83AF83B88775016401442455248E
:1044D00032018E010F5F1F4FF10181859285A38507
:1044E000B485481659066A067B0608F08CC08D8193
:1044F0009E81AF81B8858C159D05AE05BF0550F432
:1045000082E0882E912CA12CB12CB2E0CB2ED12CA4
:10451000E12CF12CC101B701A60198014CDE8823E2
:1045200009F471C089819A81AB81BC81A701960190
:104530002F5F3F4F4F4F5F4F0097A105B10519F017
:1045400049015A010DC0281939094A095B098A85B0
:104550009B85AC85BD85281739074A075B0759F04D
:104560000894411C511C611C711C0894C11CD11C75
:10457000E11CF11CB1CFC101A601B7010FEF1FEF84
:104580002FEF3FE07DDD882391F43DC02601370108
:1045900008944108510861087108C101B301A201E2
:1045A000970186016DDD882371F1730162018C141E
:1045B0009D04AE04BF0450F3AE85BF854D915D915F
:1045C0006D917C91411551056105710531F0C10175
:1045D0009501840155DD8823B1F0EE85FF85808249
:1045E0009182A282B382F985FF2359F00894811C3D
:1045F000911CA11CB11CD1018D929D92AD92BC92D7
:10460000139781E001C080E02F960FB6F894DEBFCB
:104610000FBECDBFCF91DF911F910F91FF90EF9013
:10462000DF90CF90BF90AF909F908F907F906F90D2
:104630005F904F903F902F900895CF93DF93EC01C0
:104640000AC0E091220DF091230D0190F081E02D40
:1046500082E29DE00995FE0121966491662389F727
:10466000DF91CF9108950FB6F8948091190D909134
:104670001A0DA0911B0DB0911C0D0FBE8093CA079F
:104680009093CB07A093CC07B093CD07E091BD07E3
:10469000F0E0E954F84F8081882319F486E099E02E
:1046A000CCCF08959091460880914508981731F134
:1046B0002091460830E01CC0822F90E0FC0143E0CE
:1046C000EE0FFF1F4A95E1F7E80FF91F83E0EE0FA9
:1046D000FF1F8A95E1F7E758F74F80819181A2810A
:1046E000B3810097A105B10509F03F5F2F5F2F70DF
:1046F00080914508281701F7332309F4479A089554
:104700001F920F920FB60F920BB60F9211242F9299
:104710003F924F925F926F927F928F929F92AF9251
:10472000BF92CF92DF92EF92FF920F931F932F933E
:104730003F934F935F936F937F938F939F93AF9329
:10474000BF93CF93DF93EF93FF93809147089091AE
:104750004808892B09F05DC1909145088091460871
:10476000981719F4C0E0D0E014C08091460890E09A
:1047700028E430E0829FE001839FD00D929FD00D0E
:104780001124CF58D74FC95BDF4F81E08883C754CE
:10479000D040D0934808C0934708209709F433C10C
:1047A00010926B0810926C0810926D0810926E08AF
:1047B0002BAD3CAD30936A082093690845E721335F
:1047C000340718F020E335E704C05EE421323507F2
:1047D00030F0369527953695279584E007C067E237
:1047E0002131360730F03695279582E080936408B2
:1047F00008C081E0809364082032310510F420E283
:1048000030E0B9016052704088E060307807E8F02D
:10481000472F50E0440F551F440F551F4A5F5E4F0E
:104820009A012E5F3F4FF901859194919C01AA272F
:10483000639FC001629F810D9A1F06948A1F9A1F71
:104840001124FA01459154911EC0CB01969587958C
:104850008C7F8A5F9A4FFC0145915491FC013296FE
:1048600025913491862F90E087709070BC01269F2F
:10487000C001279F900D369F900D112413E096954F
:1048800087951A95E1F7481B590B4436510510F4EA
:1048900044E650E0CA01A0E0B0E080936508909340
:1048A0006608A0936708B093680850938900409306
:1048B00088002FA938AD75E72133370718F020E3BA
:1048C00035E704C08EE42132380730F0369527955D
:1048D0003695279584E007C097E22131390730F0FB
:1048E0003695279582E08093640808C081E0809324
:1048F00064082032310510F420E230E0B901605242
:104900007040E8E060307E07E8F0472F50E0440F49
:10491000551F440F551F4A5F5E4F9A012E5F3F4F50
:10492000F901859194919C01AA27639FC001629F20
:10493000810D9A1F06948A1F9A1F1124FA0145912E
:1049400054911EC0CB01969587958C7F8A5F9A4FB4
:10495000FC0145915491FC01329625913491862FAA
:1049600090E087709070BC01269FC001279F900D3A
:10497000369F900D112473E0969587957A95E1F70F
:10498000481B590B4436510510F444E650E050934F
:10499000700840936F0888899989AA89BB89B69560
:1049A000A79597958795B095A095909581959F4FE0
:1049B000AF4FBF4F8093490890934A08A0934B088C
:1049C000B0934C0880934D0890934E08A0934F08E5
:1049D000B09350088093510890935208A0935308C5
:1049E000B09354088093550890935608A0935708A5
:1049F000B09358081092590810925A0810925B0808
:104A000010925C0806C080ED97E090938900809337
:104A10008800C0914708D0914808209709F427C31F
:104A200088A180935D08382F80FF29C0119A8CB12E
:104A30008695869586958095282F217080FF1CC0CD
:104A400080915E088823C1F088819981AA81BB8109
:104A5000181619061A061B067CF481E080935F087D
:104A600088899989AA89BB898093590890935A08A3
:104A7000A0935B08B0935C0820935E0801C0119876
:104A800031FF24C0139823B1217041E02427D9F0CD
:104A9000809160088823B9F08C819D81AE81BF81AF
:104AA000181619061A061B0674F4409361088889C3
:104AB0009989AA89BB898093590890935A08A09331
:104AC0005B08B0935C082093600801C0139A32FF22
:104AD00028C015988CB182958F708095282F2170F1
:104AE00080FF1CC0809162088823C1F08885998569
:104AF000AA85BB85181619061A061B067CF481E0E8
:104B00008093630888899989AA89BB898093590809
:104B100090935A08A0935B08B0935C0820936208B6
:104B200001C0159A33FF31C0179870916408E09066
:104B30004908F0904A0800914B0810914C08A09049
:104B40004D08B0904E08C0904F08D090500860902B
:104B5000510870905208809053089090540820900B
:104B6000550830905608409057085090580860916A
:104B70005908262F30915A0840915B0850915C08E3
:104B8000C901DA019C01AD016BC0179ACECF8881B3
:104B90009981AA81BB81E80EF91E0A1F1B1F1E14F2
:104BA0001F041006110654F4109A88899989AA895D
:104BB000BB89E81AF90A0A0B1B0B10988C819D819E
:104BC000AE81BF81A80EB91ECA1EDB1E1A141B04BB
:104BD0001C041D0454F4129A88899989AA89BB89F6
:104BE000A81AB90ACA0ADB0A129888859985AA8583
:104BF000BB85680E791E8A1E9B1E161417041804A6
:104C0000190454F4149A88899989AA89BB89681A65
:104C1000790A8A0A9B0A14988C859D85AE85BF8582
:104C2000280E391E4A1E5B1E1214130414041504A8
:104C300054F4169A88899989AA89BB89281A390A4D
:104C40004A0A5B0A16982F5F3F4F4F4F5F4F888984
:104C50009989AA89BB89281739074A075B0728F46D
:104C6000822F861B87170CF492CFE0924908F092AE
:104C70004A0800934B0810934C08A0924D08B0923C
:104C80004E08C0924F08D09250086092510870921E
:104C900052088092530890925408209255083092FE
:104CA000560840925708509258082093590830935C
:104CB0005A0840935B0850935C08E0905908F090C4
:104CC0005A0800915B0810915C088C899D89AE8917
:104CD000BF898E159F05A007B10708F4D1C0A09029
:104CE0006508B0906608C0906708D09068086C8C22
:104CF0007D8C8E8C9F8CA6019501C401B301AA27DF
:104D0000279FB12D389FF001489FF00D479FE00D80
:104D1000F11D289FB00DE11DFA1F379FB00DE11D59
:104D2000FA1F469FB00DE11DFA1F369FB10DEA1F15
:104D3000FA1FB695EA1FFA1F11248BAD9CAD8E0F9A
:104D40009F1F90936A08809369082FA938AD49ADD9
:104D50005AADA0E0B0E0281739074A075B0724F4F2
:104D600030936A08209369082091690830916A0895
:104D700075E72133370718F020E335E704C08EE4E8
:104D80002132380730F0369527953695279584E0FF
:104D900007C097E22131390730F03695279582E038
:104DA0008093640808C081E0809364082032310554
:104DB00010F420E230E0B90160527040E8E0603069
:104DC0007E07E8F0472F50E0440F551F440F551F52
:104DD0004A5F5E4F9A012E5F3F4FF9018591949192
:104DE0009C01AA27639FC001629F810D9A1F0694B0
:104DF0008A1F9A1F1124FA01459154911EC0CB01BC
:104E0000969587958C7F8A5F9A4FFC0145915491C6
:104E1000FC01329625913491862F90E08770907036
:104E2000BC01269FC001279F900D369F900D112435
:104E3000B3E096958795BA95E1F7481B590B443630
:104E4000510510F444E650E05093890040938800E7
:104E50009A0140E050E08091650890916608A09129
:104E60006708B0916808820F931FA41FB51F809335
:104E7000650890936608A0936708B0936808DEC041
:104E8000888D998DAA8DBB8D8E159F05A007B107C2
:104E900008F0CCC0A0906B08B0906C08C0906D0872
:104EA000D0906E086C8C7D8C8E8C9F8CA6019501A9
:104EB000C401B301AA27279FB12D389FF001489F55
:104EC000F00D479FE00DF11D289FB00DE11DFA1F69
:104ED000379FB00DE11DFA1F469FB00DE11DFA1F6F
:104EE000369FB10DEA1FFA1FB695EA1FFA1F11246B
:104EF0008091690890916A088E179F0728F4EF96B1
:104F000028813981EF9703C09C012E1B3F0BEF9640
:104F1000488159816A817B81EF97C901A0E0B0E0A7
:104F200084179507A607B7070CF49A0175E7213394
:104F3000370718F020E335E704C08EE42132380744
:104F400030F0369527953695279584E007C097E28F
:104F50002131390730F03695279582E08093640837
:104F600008C081E0809364082032310510F420E20B
:104F700030E0B90160527040E8E060307E07E8F050
:104F8000472F50E0440F551F440F551F4A5F5E4F97
:104F90009A012E5F3F4FF901859194919C01AA27B8
:104FA000639FC001629F810D9A1F06948A1F9A1FFA
:104FB0001124FA01459154911EC0CB019695879515
:104FC0008C7F8A5F9A4FFC0145915491FC01329687
:104FD00025913491862F90E087709070BC01269FB8
:104FE000C001279F900D369F900D112463E0969588
:104FF00087956A95E1F7481B590B4436510510F423
:1050000044E650E05093890040938800CA01A0E034
:10501000B0E08A0D9B1DAC1DBD1D80936B08909365
:105020006C08A0936D08B0936E0808C080916F085B
:10503000909170089093890080938800888999895D
:10504000AA89BB89E816F9060A071B0780F01092A7
:105050004808109247089091450880914608981793
:1050600031F0809146088F5F8F7080934608FF91E2
:10507000EF91DF91CF91BF91AF919F918F917F91F0
:105080006F915F914F913F912F911F910F91FF90E1
:10509000EF90DF90CF90BF90AF909F908F907F90D8
:1050A0006F905F904F903F902F900F900BBE0F909E
:1050B0000FBE0F901F901895A1E8B0E08C918F7EE5
:1050C0008C938C9188608C93E0E8F0E080818D7FF8
:1050D000808380818E7F808380818F7380838081B5
:1050E0008F7C80838C91887F82608C9380E090E4B9
:1050F000909389008093880010928500109284001C
:10510000EFE6F0E080818260808381E080936D0132
:10511000789408951092DB071092DC071092DF0755
:105120001092E10782E090E0A0E0B0E08093E20717
:105130009093E307A093E407B093E5071092F90773
:105140008CE092E09093010880930008109204088C
:1051500090931D0880931C08109220080895EF92E8
:10516000FF920F931F9339C0211531054105510559
:1051700071F01092EB021092EA0245981092F1023F
:105180001092F0024498779A769A479A439A0FB60B
:10519000F8948091190D90911A0DA0911B0DB0916A
:1051A0001C0D0FBE2091D2073091D3074091D40738
:1051B0005091D5078E199F09A00BB10B28173907FD
:1051C0004A075B0748F4211531054105510521F0D7
:1051D000779A769A479A439A65DA90914508809132
:1051E0004608981741F10E94DF0E0FB6F89480919F
:1051F000190D90911A0DA0911B0DB0911C0D0FBEB1
:10520000E090CA07F090CB070091CC071091CD0732
:105210002091CE073091CF074091D0075091D10710
:105220008E199F09A00BB10B281739074A075B0796
:1052300008F49ACFACCF1F910F91FF90EF90089593
:105240006F927F928F929F92AF92BF92CF92DF9296
:10525000EF92FF920F931F9339014A0120911B0196
:1052600030911C0140911D0150911E010E940F5A66
:105270000E94DF596093F10C7093F20C8093F30C51
:105280009093F40CC401B30120911F0130912001CF
:1052900040912101509122010E940F5A0E94DF5932
:1052A0006093F50C7093F60C8093F70C9093F80CC8
:1052B000C801B701209123013091240140912501BB
:1052C000509126010E940F5A0E94DF596093F90CF9
:1052D0007093FA0C8093FB0C9093FC0CC601B50103
:1052E00020912701309128014091290150912A01F4
:1052F0000E940F5A0E94DF596093FD0C7093FE0CC0
:105300008093FF0C9093000D80E090E0A0E0B0E06F
:105310008093010D9093020DA093030DB093040DA3
:105320008093050D9093060DA093070DB093080D83
:105330008093090D90930A0DA0930B0DB0930C0D63
:1053400080930D0D90930E0DA0930F0DB093100D43
:105350008093110D9093120DA093130DB093140D23
:105360001F910F91FF90EF90DF90CF90BF90AF9083
:105370009F908F907F906F9008958F929F92AF92A1
:10538000BF92CF92DF92EF92FF920F931F93CF9332
:10539000DF93EC016B01009709F45CC08EA98823B0
:1053A00009F058C0EDA0FEA00FA118A5FB01B5A003
:1053B000A6A097A080A4C801B7012B2D3A2D492D96
:1053C000582D0E942F5788230CF044C0C801B70104
:1053D000A80197010E940F5A7B018C0169A97AA943
:1053E0008BA99CA9905820E030E040E050EC0E944E
:1053F0000F5A2DA53EA54FA558A90E940F5A9B01F3
:10540000AC01C801B7010E9456560E947C5A7B012C
:105410008C016B2D7A2D892D982D9701A8010E9462
:105420002F57882324F4EB2CFA2C092D182D6B2DE3
:105430007A2D892D982D9701A8010E942F57882336
:1054400049F0C701D801F60185A396A3A7A3B0A789
:1054500081E085ABDF91CF911F910F91FF90EF908D
:10546000DF90CF90BF90AF909F908F900895EF9274
:10547000FF920F931F93CF93DF93F090460800E0C5
:1054800010E020E030E058E4E52E11C0FE9CE00181
:105490001124CF58D74FC901B801AE016EDF8F2D4F
:1054A0008F5F803109F480E0F82E98018E018091A1
:1054B0004508F81659F7C901B80140E050E05DDF32
:1054C000DF91CF911F910F91FF90EF900895AF92D0
:1054D000BF92CF92DF92EF92FF920F931F93CF93E1
:1054E000DF93EB018A016115710509F466C041156E
:1054F000510509F462C0D9A4CAA4BBA4ACA46DA18F
:105500007EA18FA198A52D2D3C2D4B2D5A2D0E94AB
:105510002F57882309F451C08EA9882309F043C06E
:10552000F801E5A0F6A007A110A56D2D7C2D8B2D0F
:105530009A2DA80197010E943D591816A4F5C8019B
:10554000B701A80197010E940F5A7B018C0169A93C
:105550007AA98BA99CA9905820E030E040E050EC5B
:105560000E940F5A2DA53EA54FA558A90E940F5A7B
:105570009B01AC01C801B7010E9456560E947C5A9B
:105580007B018C016D2D7C2D8B2D9A2D9701A8010F
:105590000E942F57882324F4ED2CFC2C0B2D1A2D60
:1055A000C701D80104C08D2D9C2DAB2DBA2D8DA324
:1055B0009EA3AFA3B8A781E08DABDF91CF911F91E0
:1055C0000F91FF90EF90DF90CF90BF90AF90089534
:1055D000CF92DF92FF920F93DF93CF9300D0CDB79E
:1055E000DEB780914508809145082091460890E0FB
:1055F0004096821B91098F70907004970CF1009176
:10560000450803500F70CC24DD2440E050E068E4EE
:10561000F62E12C0802F002309F480E1082F0150DC
:105620000F9DC00111248F58974F9A838983B6012B
:105630004EDFA601C980DA8080914608081751F72D
:105640000F900F90CF91DF910F91FF90DF90CF904F
:105650000895109245081092460880E1E1EFFCE0C1
:10566000DF011D928A95E9F780E090E0A0E0B0E0CC
:105670008093050D9093060DA093070DB093080D30
:105680008093090D90930A0DA0930B0DB0930C0D10
:1056900080930D0D90930E0DA0930F0DB093100DF0
:1056A0008093110D9093120DA093130DB093140DD0
:1056B0008093010D9093020DA093030DB093040D00
:1056C00008952F923F924F925F926F927F928F92A6
:1056D0009F92AF92BF92CF92DF92EF92FF920F9381
:1056E0001F93DF93CF93CDB7DEB766970FB6F894CD
:1056F000DEBF0FBECDBF9E8B8D8B6A017B01480143
:105700005901DC01D7966D917D918D919C91DA972D
:105710000E94D157698B7A8B8B8B9C8BA70196014A
:105720000E940F5A0E941C570E94A3576D837E83CC
:105730008F83988769897A898B899C89A5019401CF
:105740000E940F5A0E941C570E94A35769837A83B4
:105750008B839C832D813E814F815885283731056D
:105760004105510540F448E750E060E070E04D83AA
:105770005E836F83788769817A818B819C816837AA
:1057800071058105910540F488E790E0A0E0B0E064
:1057900089839A83AB83BC83AD89BE89AD5BBF4FE0
:1057A000AD90BD90CD90DC901397A354B040BE8BCC
:1057B000AD8BDB966D917D918D919C91DE970E94D2
:1057C000D1576D877E878F87988BC601B5010E9460
:1057D000D1571B012C0120E030E040E050E00E9456
:1057E0002F57882321F4E0E070E060E028C0698949
:1057F0007A898B899C899B01AC010E940F5A7B019D
:105800008C016D857E858F8598899B01AC010E94F6
:105810000F5A9B01AC01C801B7010E9455567B018C
:105820008C01C201B101A20191010E9456569B0157
:10583000AC01C801B7010E943657E62F692F2E2F01
:10584000372F482F562FB901CA010E941C570E94BA
:105850009E573B014C01ED89FE89FF966081718165
:10586000828193810E94D15769877A878B879C8731
:1058700066277727CB016A197B098C099D090E944D
:10588000D1575B016C0120E030E040E050E00E9425
:105890002F57882321F4E0E070E060E028C069859C
:1058A0007A858B859C859B01AC010E940F5A7B01F8
:1058B0008C0169897A898B899C899B01AC010E9442
:1058C0000F5A9B01AC01C801B7010E9455567B01DC
:1058D0008C01C601B501A60195010E9456569B0197
:1058E000AC01C801B7010E943657E62F692F2E2F51
:1058F000372F482F562FB901CA010E940C58ED8945
:10590000FE89A088B188C288D38886017501E6180F
:10591000F708080919090E949E57A8019701261B3C
:10592000370B480B590B57FF71C0C201B10120E082
:1059300030E040E050E00E942F57882321F4E0E05F
:1059400070E060E044C0C201B101A20191010E9477
:1059500056567B018C01C601B5010E94CF579B01B1
:10596000AC01C801B7010E940F5A7B018C016D8503
:105970007E858F8598899B01AC010E940F5A9B01FF
:10598000AC01C801B7010E9455567B018C016985A5
:105990007A858B859C859B01AC010E940F5A9B01E7
:1059A000AC01C801B7010E9456567B018C01C201AF
:1059B000B10120E030E040E850E40E940F5A9B0122
:1059C000AC01C801B7010E943657E62F692F2E2F70
:1059D000372F482F562FB901CA010E941C570E9429
:1059E0009E57AC01CB01DA013C014D0197FE03C08B
:1059F0006624772443016A147B048C049D0410F010
:105A00003501460120E030E040E050E09FB7F894D7
:105A10006D897E89695B7F4FDB018C91A754B04013
:105A2000BE8BAD8B882319F5FD01648A758A868A41
:105A3000978A260D371D481D591D58962D933D9365
:105A40004D935C935B972D813E814F815885DB960A
:105A50002D933D934D935C93DE97DF9629813A8198
:105A60004B815C812D933D934D935C9313979FBF26
:105A700066960FB6F894DEBF0FBECDBFCF91DF9113
:105A80001F910F91FF90EF90DF90CF90BF90AF905C
:105A90009F908F907F906F905F904F903F902F904E
:105AA00008954F925F927F928F929F92AF92BF9292
:105AB000CF92DF92EF92FF920F931F93CF93DF93DA
:105AC00070904608C0E0D0E078E4472E512C45C0E5
:105AD0002097A9F18DA9882361F4849CF001859C0D
